:020000040800F2
:1000000000500020194E0008054600080746000869
:10001000094600080B4600080D46000800000000D5
:100020000000000000000000000000000F46000873
:10003000114600080000000013460008154600089D
:10004000614E0008614E0008614E0008614E0008D4
:10005000614E0008614E0008614E0008614E0008C4
:10006000614E0008614E0008614E0008614E0008B4
:10007000614E0008614E0008614E0008614E0008A4
:10008000614E0008614E0008614E0008614E000894
:1000900025460008614E0008614E0008614E0008C8
:1000A000614E0008614E0008614E0008614E000874
:1000B000614E000835460008614E0008614E000898
:1000C000614E0008614E0008614E0008614E000854
:1000D000614E0008614E0008614E0008614E000844
:1000E000614E0008614E0008614E000800000000EB
:1000F0000000000000000000000000000000000000
:0C01000000000000000000005FF808F1A3
:1001100010B5054C237833B9044B13B10448AFF341
:1001200000800123237010BD880000200000000023
:100130009460000808B5034B1BB103490348AFF3B3
:10014000008008BD000000008C00002094600008C2
:1001500081F0004102E000BF83F0004330B54FEA78
:1001600041044FEA430594EA050F08BF90EA020FE5
:100170001FBF54EA000C55EA020C7FEA645C7FEA78
:10018000655C00F0E2804FEA5454D4EB5555B8BF9B
:100190006D420CDD2C4480EA020281EA030382EA0C
:1001A000000083EA010180EA020281EA0303362D9E
:1001B00088BF30BD11F0004F4FEA01314FF4801C71
:1001C0004CEA113102D0404261EB410113F0004F83
:1001D0004FEA03334CEA133302D0524263EB43033A
:1001E00094EA050F00F0A780A4F10104D5F1200ED8
:1001F0000DDB02FA0EFC22FA05F2801841F1000133
:1002000003FA0EF2801843FA05F359410EE0A5F106
:1002100020050EF1200E012A03FA0EFC28BF4CF037
:10022000020C43FA05F3C01851EBE37101F00045ED
:1002300007D54FF0000EDCF1000C7EEB00006EEBFA
:100240000101B1F5801F1BD3B1F5001F0CD3490884
:100250005FEA30004FEA3C0C04F101044FEA4452DB
:1002600012F5800F80F09A80BCF1004F08BF5FEA62
:10027000500C50F1000041EB045141EA050130BD42
:100280005FEA4C0C404141EB010111F4801FA4F1E5
:100290000104E9D191F0000F04BF01460020B1FA3A
:1002A00081F308BF2033A3F10B03B3F120020CDA72
:1002B0000C3208DD02F1140CC2F10C0201FA0CF050
:1002C00021FA02F10CE002F11402D8BFC2F1200CB5
:1002D00001FA02F120FA0CFCDCBF41EA0C0190406B
:1002E000E41AA2BF01EB0451294330BD6FEA0404B4
:1002F0001F3C1CDA0C340EDC04F11404C4F120029F
:1003000020FA04F001FA02F340EA030021FA04F3B0
:1003100045EA030130BDC4F10C04C4F1200220FA07
:1003200002F001FA04F340EA0300294630BD21FA45
:1003300004F0294630BD94F0000F83F4801306BF0B
:1003400081F480110134013D4EE77FEA645C18BFFF
:100350007FEA655C29D094EA050F08BF90EA020F96
:1003600005D054EA000C04BF1946104630BD91EA8E
:10037000030F1EBF0021002030BD5FEA545C05D191
:100380004000494128BF41F0004130BD14F58004D0
:100390003CBF01F5801130BD01F0004545F0FE4144
:1003A00041F470014FF0000030BD7FEA645C1ABF79
:1003B000194610467FEA655C1CBF0B46024650EAB0
:1003C000013406BF52EA033591EA030F41F40021DC
:1003D00030BD00BF90F0000F04BF0021704730B562
:1003E0004FF4806404F132044FF000054FF0000137
:1003F00050E700BF90F0000F04BF0021704730B5F8
:100400004FF4806404F1320410F0004548BF4042CC
:100410004FF000013EE700BF42004FEAE2014FEA21
:1004200031014FEA02701FBF12F07F4393F07F4FFC
:1004300081F06051704732F07F4208BF704793F0FF
:100440007F4F04BF41F40021704730B54FF4607412
:1004500001F0004521F000411CE700BF50EA010215
:1004600008BF704730B54FF000050AE050EA0102BE
:1004700008BF704730B511F0004502D5404261EB2E
:1004800041014FF4806404F132045FEA915C3FF46F
:10049000D8AE4FF003025FEADC0C18BF03325FEA0C
:1004A000DC0C18BF033202EBDC02C2F1200300FABD
:1004B00003FC20FA02F001FA03FE40EA0E0021FAE2
:1004C00002F11444BDE600BF70B54FF0FF0C4CF4D0
:1004D000E06C1CEA11541DBF1CEA135594EA0C0F82
:1004E00095EA0C0F00F0DEF82C4481EA030621EABD
:1004F0004C5123EA4C5350EA013518BF52EA0335F8
:1005000041F4801143F4801338D0A0FB02CE4FF0A9
:100510000005E1FB02E506F00042E0FB03E54FF0D9
:100520000006E1FB03569CF0000F18BF4EF0010ED1
:10053000A4F1FF04B6F5007F64F5407404D25FEACD
:100540004E0E6D4146EB060642EAC62141EA555180
:100550004FEAC52040EA5E504FEACE2EB4F1FD0CC2
:1005600088BFBCF5E06F1ED8BEF1004F08BF5FEA40
:10057000500E50F1000041EB045170BD06F00046F2
:1005800046EA010140EA020081EA0301B4EB5C049F
:10059000C2BFD4EB0C0541EA045170BD41F4801197
:1005A0004FF0000E013C00F3AB8014F1360FDEBFBC
:1005B000002001F0004170BDC4F10004203C35DA98
:1005C0000C341BDC04F11404C4F1200500FA05F31B
:1005D00020FA04F001FA05F240EA020001F00042BC
:1005E00021F0004110EBD37021FA04F642EB060132
:1005F0005EEA430E08BF20EAD37070BDC4F10C045C
:10060000C4F1200500FA04F320FA05F001FA04F21F
:1006100040EA020001F0004110EBD37041F100010B
:100620005EEA430E08BF20EAD37070BDC4F1200516
:1006300000FA05F24EEA020E20FA04F301FA05F27E
:1006400043EA020321FA04F001F0004121FA04F226
:1006500020EA020000EBD3705EEA430E08BF20EAF6
:10066000D37070BD94F0000F0FD101F00046400030
:1006700041EB010111F4801F08BF013CF7D041EAB2
:10068000060195F0000F18BF704703F000465200B6
:1006900043EB030313F4801F08BF013DF7D043EA87
:1006A0000603704794EA0C0F0CEA135518BF95EA3D
:1006B0000C0F0CD050EA410618BF52EA4306D1D1C4
:1006C00081EA030101F000414FF0000070BD50EAE3
:1006D000410606BF1046194652EA430619D094EA6D
:1006E0000C0F02D150EA013613D195EA0C0F05D157
:1006F00052EA03361CBF104619460AD181EA0301AB
:1007000001F0004141F0FE4141F470014FF0000062
:1007100070BD41F0FE4141F4780170BD70B54FF0FD
:10072000FF0C4CF4E06C1CEA11541DBF1CEA13557D
:1007300094EA0C0F95EA0C0F00F0A7F8A4EB05045F
:1007400081EA030E52EA03354FEA013100F0888056
:100750004FEA03334FF0805545EA131343EA12631F
:100760004FEA022245EA111545EA10654FEA0026D4
:100770000EF000419D4208BF964244F1FD0404F58D
:10078000407402D25B084FEA3202B61A65EB0305E9
:100790005B084FEA32024FF480104FF4002CB6EBA6
:1007A000020E75EB030E22BFB61A754640EA0C0026
:1007B0005B084FEA3202B6EB020E75EB030E22BF66
:1007C000B61A754640EA5C005B084FEA3202B6EBA7
:1007D000020E75EB030E22BFB61A754640EA9C0066
:1007E0005B084FEA3202B6EB020E75EB030E22BF36
:1007F000B61A754640EADC0055EA060E18D04FEAF4
:10080000051545EA16754FEA06164FEAC30343EA93
:1008100052734FEAC2025FEA1C1CC0D111F4801F60
:100820000BD141EA00014FF000004FF0004CB6E759
:1008300011F4801F04BF01430020B4F1FD0C88BFF8
:10084000BCF5E06F3FF6AFAEB5EB030C04BFB6EB03
:10085000020C5FEA500C50F1000041EB045170BDF6
:100860000EF0004E4EEA113114EB5C04C2BFD4EB23
:100870000C0541EA045170BD41F480114FF0000EA7
:10088000013C90E645EA060E8DE60CEA135594EA23
:100890000C0F08BF95EA0C0F3FF43BAF94EA0C0F26
:1008A0000AD150EA01347FF434AF95EA0C0F7FF49B
:1008B00025AF104619462CE795EA0C0F06D152EAEF
:1008C00003353FF4FDAE1046194622E750EA4106D3
:1008D00018BF52EA43067FF4C5AE50EA41047FF4E4
:1008E0000DAF52EA43057FF4EBAE12E74FEA410247
:1008F000B2F1E04324BFB3F5001CDCF1FE5C0DD97E
:1009000001F0004C4FEAC0024CEA5070B2F1004FC7
:1009100040EB830008BF20F00100704711F0804FCA
:1009200021D113F13872BCBF01F00040704741F48F
:1009300080114FEA5252C2F11802C2F1200C10FA93
:100940000CF320FA02F018BF40F001004FEAC12377
:100950004FEAD32303FA0CFC40EA0C0023FA02F31B
:100960004FEA4303CCE77FEA625307D150EA0133F1
:100970001EBF4FF0FE4040F44000704701F00040C1
:1009800040F0FE4040F40000704700BF10B5044640
:100990000E4B18784FF47A73B3FBF0F30C4A1068DF
:1009A000B0FBF3F000F038FC68B90F2C01D901203E
:1009B0000AE0002221464FF0FF3000F0EDFB034B30
:1009C0005C60002000E0012010BD00BF000000209E
:1009D0000800002008B5074A136843F010031360AD
:1009E000032000F0C7FB0020FFF7D0FF03F036FD27
:1009F000002008BD00200240034A1168034B1B7809
:100A00000B441360704700BFC003002000000020AB
:100A1000014B1868704700BFC003002038B504467A
:100A2000FFF7F6FF0546B4F1FF3F02D0044B1B78F9
:100A30001C44FFF7EDFF401BA042FAD338BD00BFB6
:100A400000000020F0B44B6901229A400468D4F8F9
:100A5000003223F47C534D6A43EA052343F001033B
:100A6000C4F800320568D5F81C42D3431C40C5F8D1
:100A70001C42CC69C4B90568D5F80C421C40C5F8C5
:100A80000C42CF688D8806684C6945EA07454834B2
:100A900046F834508F680D8804684E6945EA07456A
:100AA000483604EBC6046560CC69012C1ED08C6905
:100AB000002C35D10568D5F804421C40C5F8044225
:100AC0000C69002C33D10468D4F814522B40C4F8BC
:100AD00014320B6A012B31D00268D2F8003223F0B5
:100AE0000103C2F800320020F0BC70470568D5F859
:100AF0000C421443C5F80C420F688D8806684C6997
:100B000045EA0745483446F834508F688D890468B3
:100B10004E6945EA0745483604EBC6046560C6E7FA
:100B20000568D5F804421443C5F80442C8E70468D0
:100B3000D4F814321343C4F81432CAE70168D1F868
:100B40001C321A43C1F81C22C6E7002800F0968028
:100B500038B5044690F83C3003B3022384F83C30A7
:100B60002268136823F0020313602268136843F0BD
:100B700001031360FFF74CFF054623685A6812F023
:100B8000010F10D1FFF744FF401B0A28F5D90320BD
:100B900084F83C00002384F83D3038BD80F83D30B7
:100BA00003F0ACFCD9E75A6812F0010F5BD0A269E0
:100BB000012A43D00022E169012941D022F04002FC
:100BC000216A01293FD022F02002616A01293DD02B
:100BD00022F01002A16A01293BD022F00802E16A4A
:100BE000012939D022F00402196821F0FC010A43DE
:100BF0001A60A368E26813432269134362691343CE
:100C00006268013A21681343CB612268136823F0BC
:100C100001031360FFF7FCFE054623685A6812F0D3
:100C2000010F1CD0FFF7F4FE401B0A28F5D9032062
:100C300084F83C00002384F83D30AEE78022BAE718
:100C400042F04002BCE742F02002BEE742F0100250
:100C5000C0E742F00802C2E742F00402C4E75B6862
:100C600013F0010F04D0042384F83C30012094E7F2
:100C700000202064012384F83C308EE70120704777
:100C80000A4699B990F83C30DBB2222B7CD090F820
:100C90003C30DBB2422B79D090F83C30DBB2622B97
:100CA00076D090F83C30DBB2722B73D0012A16D08C
:100CB00090F83D30012B75D010B4012380F83D3001
:100CC000002A41D190F83C30DBB2322B34D0522B89
:100CD00036D0122B19D0222380F83C3018E090F83F
:100CE0003C30DBB2322B57D090F83C30DBB2522B89
:100CF00054D090F83C30DBB2622B51D090F83C30AD
:100D0000DBB2722BD4D102207047422380F83C30F2
:100D1000002101640468636943F40F4343F0010355
:100D2000636180F83D1042B30268536943F0500399
:100D30005361002010BC7047622380F83C30E7E725
:100D4000722380F83C30E3E790F83C30DBB2222B92
:100D50000BD0422B0DD0122B03D0322380F83C3025
:100D6000D6E7522380F83C30D2E7622380F83C304B
:100D7000CEE7722380F83C30CAE70268536943F03B
:100D80000A0353610846D5E70220704702207047E6
:100D900002207047022070470220704702207047EF
:100DA0000220704702207047704708B502685369F7
:100DB00023F00103536190F83C30DBB2122B0CD0CE
:100DC00090F83C30DBB2522B14D0722B16D0422B51
:100DD00009D0012380F83C3008E00268536923F40D
:100DE0000F435361ECE7222380F83C30FFF7DCFF30
:100DF000002008BD322380F83C30F7E7622380F8FA
:100E00003C30F3E710B50C46002978D1436B0168FC
:100E100004F11B0212018A5802F004029A60002AAF
:100E20006FD1016804F11B0212018A58520D1A6039
:100E3000016804F11B021201895801F00201D96016
:100E400001681144496801F00F0119611C620168D1
:100E50000A445268C2F30722DA6101682201114490
:100E6000D1F8B811197501681144D1F8B811090AFF
:100E7000597501681144D1F8B811090C99750168C8
:100E80001144D1F8B811090ED97501681144D1F88F
:100E9000BC11197601681144D1F8BC11090A5976C0
:100EA00001681144D1F8BC11090C997601680A4413
:100EB000D2F8BC21120EDA765CBB03682022DA601D
:100EC0000268536923F00A03536190F83C30DBB2A7
:100ED000222B01D0322B04D10268536923F40F4333
:100EE000536174BB90F83C30DBB2622B21D0722B83
:100EF00023D0422B16D0012380F83C3015E0836BC1
:100F000085E7016804F11B0212018A58D2085A6071
:100F10008EE7036820221A610268536923F05003A8
:100F20005361D2E7122380F83C3003F061F90020CE
:100F300010BD322380F83C30F7E7522380F83C3074
:100F4000F3E790F83C30DBB2622B0BD0722B0DD064
:100F5000522B03D0012380F83C30E6E7122380F8BF
:100F60003C30E2E7222380F83C30DEE7422380F881
:100F70003C30DAE77047000070B504460268D1687B
:100F8000536911F0100F09D003F00803002B00F093
:100F9000A6801023D3604FF4007500E0002522687E
:100FA0001169536903F0400311F0100F04D01BB115
:100FB00045F480651023136123685A6912F0010F0C
:100FC00028D09E689968674A0A40996821F06F4165
:100FD00021F47E01090C09046348B04305D061483F
:100FE000824202D0614A914214D199689A6802F40F
:100FF00000729B6803F0010311F0020F02D10AB9DD
:10100000002B6ED02046FFF7D0FE22689168584B27
:101010000B4393602368DA685B6903F0020312F004
:10102000030F01D0002B5FD123681A695B6903F0BD
:10103000100312F0030F01D0002B5AD1236C2B4365
:101040002364236898695A6902F48072596901F42B
:10105000004110F0010F05D022B119B1226C42F00D
:101060000102226498695A6902F40072596901F414
:10107000004110F0020F05D022B119B1226C42F0EC
:101080000202226498695A6902F48062596901F483
:10109000004110F0040F05D022B119B1226C42F0CA
:1010A0000402226498695A6902F40062596901F4E1
:1010B000004110F0700F32D08AB381B39A6902F008
:1010C0007002302A2ED019D9502A30D0602A33D05D
:1010D000402A20D1226C42F0400222641BE000250D
:1010E0005DE745F4006590E700212046FFF78AFEA2
:1010F0009AE701212046FFF785FE9FE7102A06D0D8
:10110000202A08D1226C42F01002226403E0226CF3
:1011100042F0080222649A6922F070029A61236CFC
:101120007BB970BD226C42F020022264F3E7226C8E
:1011300042F080022264EEE7226C42F48072226464
:10114000E9E7236804225A60012384F83C302268CE
:10115000536923F40F4323F05B0353612046FFF7E9
:1011600009FFDEE700010008010000040000011093
:1011700009050100074AD36823F4E0631B041B0C34
:10118000000200F4E060184340F0BF6040F400301B
:10119000D060704700ED00E030B4174BDB68C3F35C
:1011A0000223C3F10704042C28BF04241D1D062DAF
:1011B00018D9033B4FF0FF3505FA04F421EA040186
:1011C000994005FA03F322EA0303194300280BDBD5
:1011D0000901C9B200F1604000F5614080F80013D8
:1011E00030BC70470023E5E700F00F000901C9B2E9
:1011F000024B1954F4E700BF00ED00E014ED00E0ED
:1012000000F01F02400901239340024A42F82030B7
:10121000704700BF00E100E00138B0F1807F0AD2E2
:10122000064B5860064AF02182F82310002098608F
:1012300007221A6070470120704700BF10E000E0ED
:1012400000ED00E0042805D0054A136823F00403EC
:1012500013607047024A136843F004031360704739
:1012600010E000E0704708B5FFF7FCFF08BD000084
:10127000F0B482B000263546A1E0002C59D0012CF4
:1012800000D1CE68FF2B68D88446FF2B68D8AC000D
:10129000DCF800200F27A74022EA070206FA04F430
:1012A0002243CCF800204A6812F0805F00F086806C
:1012B0005E4A946944F001049461926902F001026B
:1012C0000192019AAC08A71C594A52F8272005F050
:1012D0000307BF004FF00F0C0CFA07FC22EA0C0CBE
:1012E000544A904242D002F5806290427FD002F58B
:1012F000806290427DD002F58062904234D0042218
:1013000035E04D4FBC4214D00BD94C4FBC4210D0ED
:1013100007F58037BC420CD0A7F58017BC42B1D18D
:1013200007E0A7F58017BC4203D007F58037BC4221
:10133000A8D18C687CB1012C08D042610826A1E7B5
:10134000CE6808369EE7CE680C369BE70261082619
:1013500098E7002696E7042694E700F1040C94E74A
:10136000A5F10804A40093E7032200E00022BA409C
:1013700042EA0C0202342E4F47F824204A6812F445
:10138000803F38D02E4C22681A4322604A6812F4FB
:10139000003F36D02A4C62681A4362604A6812F4F1
:1013A000801F34D0264CA2681A43A2604A6812F407
:1013B000001F32D0224CE2681343E36001350F2D49
:1013C00031D80122AA400B6813409A42F6D14C68EA
:1013D000122CB8D095D8022CB2D07FF64EAF032C89
:1013E000B7D0112C7FF44EAFCE6804364AE7012205
:1013F000BDE70222BBE7124C226822EA0302226008
:10140000C4E70F4C626822EA03026260C6E70C4C34
:10141000A26822EA0302A260C8E7094CE26822EA55
:101420000303E360CAE702B0F0BC7047001002405B
:1014300000000140000801400000211000003110B0
:101440000004014012B9090401617047016170474D
:10145000C3685940C160704782B0084B1B68084A96
:10146000A2FB03235B0A00FB03F0019000BF019B7A
:101470005A1E0192002BF9D102B0704708000020DB
:10148000D34D621070B582B00446036813F0010FAB
:101490002CD0AB4B5B6803F00C03042B1DD0A84B86
:1014A0005B6803F00C03082B12D06368B3F5803F30
:1014B00041D0002B55D103F1804303F504331A6862
:1014C00022F480321A601A6822F480221A6037E00F
:1014D0009B4B5B6813F4803FE7D0994B1B6813F478
:1014E000003F03D06368002B00F0AE81236813F047
:1014F000020F76D0924B5B6813F00C0F5FD0904BCD
:101500005B6803F00C03082B54D02369002B00F018
:101510008A808C4B01221A60FFF77AFA0546884BC5
:101520001B6813F0020F75D1FFF772FA401B0228F7
:10153000F5D903208BE1824A136843F480331360AA
:10154000636843B3FFF764FA05467D4B1B6813F4E9
:10155000003FCBD1FFF75CFA401B6428F5D903208C
:1015600075E1B3F5A02F09D0754B1A6822F48032CB
:101570001A601A6822F480221A60E1E703F18043BE
:10158000A3F53C331A6842F480221A601A6842F4C8
:1015900080321A60D4E7FFF73BFA0546684B1B68B8
:1015A00013F4003FA2D0FFF733FA401B6428F5D9AB
:1015B00003204CE1624B5B6813F4803FA5D1604B84
:1015C0001B6813F0020F04D02369012B01D0012006
:1015D0003DE15B4A136823F0F803616943EAC10304
:1015E0001360236813F0080F32D0A369002B5BD07F
:1015F000554B01221A60FFF70BFA0546504B5B6A08
:1016000013F0020F21D1FFF703FA401B0228F5D98E
:1016100003201CE14A4A136823F0F803616943EA96
:10162000C1031360DDE7474B00221A60FFF7F0F9B2
:101630000546434B1B6813F0020FD2D0FFF7E8F9C1
:10164000401B0228F5D9032001E10120FFF704FF28
:10165000236813F0040F00F09780394BDB6913F017
:10166000805F33D1364BDA6942F08052DA61DB6950
:1016700003F080530193019B0125344B1B6813F445
:10168000807F25D0E368012B36D0002B4CD103F1AD
:10169000804303F504331A6A22F001021A621A6ABF
:1016A00022F004021A622CE0274B00221A60FFF796
:1016B000AFF90546224B5B6A13F0020FC8D0FFF763
:1016C000A7F9401B0228F5D90320C0E00025D4E784
:1016D0001E4A136843F480731360FFF799F90646B6
:1016E0001A4B1B6813F4807FCCD1FFF791F9801B54
:1016F0006428F5D90320AAE0114A136A43F00103D4
:101700001362E36873B3FFF783F906460C4B1B6A59
:1017100013F0020F37D1FFF77BF9801B41F28833BA
:101720009842F3D9032092E0052B11D0044B1A6A9A
:1017300022F001021A621A6A22F004021A62E0E739
:10174000001002400000424280044242007000400B
:10175000414B1A6A42F004021A621A6A42F001020C
:101760001A62CEE7FFF754F906463B4B1B6A13F0AB
:10177000020F08D0FFF74CF9801B41F288339842E2
:10178000F3D9032063E0E5B9E369002B5ED0324A68
:10179000526802F00C02082A5BD0022B17D02F4BA4
:1017A00000221A60FFF734F904462B4B1B6813F034
:1017B000007F47D0FFF72CF9001B0228F5D9032042
:1017C00045E0254AD36923F08053D361DCE7234BFE
:1017D00000221A60FFF71CF905461F4B1B6813F027
:1017E000007F06D0FFF714F9401B0228F5D903202B
:1017F0002DE0236AB3F5803F1AD017494B6823F4D4
:101800007413226A606A024313434B60134B012234
:101810001A60FFF7FDF804460F4B1B6813F0007FBA
:101820000ED1FFF7F5F8001B0228F5D903200EE0D2
:10183000094A536823F40033A1680B435360DCE783
:10184000002004E0002002E0012000E0002002B0BF
:1018500070BD0120FBE700BF001002406000424263
:1018600010B487B0164C94E80F000DF1180C0CE979
:101870000F00238AADF80430124B5B6803F00C02B2
:10188000082A1AD1C3F38342624412F8102C13F4CD
:10189000803F05D10C4800FB02F007B010BC704738
:1018A000084B5B68C3F34043634413F8143C074898
:1018B00000FB02F0B0FBF3F0EFE70448EDE700BFF8
:1018C000AC6000080010024000093D0000127A00E0
:1018D000594B1B6803F007038B420CD2564A13681E
:1018E00023F007030B431360136803F007038B42D5
:1018F00001D00120704770B5036813F0020F06D0C5
:101900004E4A536823F0F0038468234353600C4627
:101910000546036813F0010F52D04368012B23D012
:10192000022B28D0454A126812F0020F00F0828084
:1019300042494A6822F0030213434B60FFF768F8FC
:1019400006466B68012B1DD0022B2AD03B4B5B68EF
:1019500013F00C0F34D0FFF75BF8801B41F2883393
:101960009842F3D9032064E0344A126812F4003F2D
:10197000DED101205DE0314A126812F0007FD7D13C
:10198000012056E02D4B5B6803F00C03042B17D0AD
:10199000FFF73EF8801B41F288339842F2D90320CA
:1019A00047E0264B5B6803F00C03082B08D0FFF7D9
:1019B0002FF8801B41F288339842F2D9032038E097
:1019C0001D4B1B6803F00703A3420CD91A4A136886
:1019D00023F0070323431360136803F00703A342B4
:1019E00001D0012025E02B6813F0040F06D0134A24
:1019F000536823F4E063E9680B4353602B6813F0EA
:101A0000080F07D00D4A536823F46053296943EA4D
:101A1000C1035360FFF724FF084B5B68C3F3031354
:101A2000074AD35CD840074B18600020FEF7AEFF92
:101A3000002070BD0120FCE70020024000100240A1
:101A40007061000808000020014B1868704700BF53
:101A500008000020F8B505460F4616461C463BE038
:101A60002CB1FEF7D5FF069BC01AA04234D32A68DA
:101A7000536823F0E00353606B68B3F5827F0BD0AB
:101A8000AB6AB3F5005F14D0012385F85130002311
:101A900085F85030032027E0AB68B3F5004F02D043
:101AA000B3F5806FECD12A68136823F0400313600C
:101AB000E6E72A68136823F400531B041B0C136029
:101AC0002A68136843F400531360DDE70123B3422F
:101AD00009D0B4F1FF3FC3D12B689B6837EA0303F9
:101AE000F4D00023F3E70020F8BD10B582B004461F
:101AF00000920B4600228021FFF7ACFF034610B98D
:101B0000184602B010BD636D43F0200363650323E4
:101B1000F6E72DE9F04184B01E4690F85030012BD5
:101B200000F0C88004460D469046012380F85030EE
:101B3000FEF76EFF074694F85130DBB2012B0AD056
:101B40000223012284F85120002284F850201846F4
:101B500004B0BDE8F081002D00F0A480B8F1000FC2
:101B600000F0A280032384F85130002363652563CD
:101B7000A4F83480A4F83680A363A387E387636462
:101B80002364A368B3F5004F1BD023681A6812F0D2
:101B9000400F03D11A6842F040021A60E368B3F5BF
:101BA000006F14D063681BB1E38E9BB2012B3ED152
:101BB000236815F8012B1A73E38E013B9BB2E38671
:101BC00035E02268136843F480431360DDE76368FF
:101BD0001BB1E38E9BB2012B0DD1236835F8022B8C
:101BE000DA60E38E013B9BB2E38604E0002E5DD019
:101BF000B6F1FF3F0FD1E38E9BB27BB323689A68A7
:101C000012F0020FF2D035F8022BDA60E38E013BBE
:101C10009BB2E386EFE7FEF7FBFEC01BB042EAD3C0
:101C200003238EE7002E43D0B6F1FF3F0FD1E38EA2
:101C30009BB29BB123689A6812F0020FF2D015F89C
:101C4000012B1A73E38E013B9BB2E386EFE7FEF7AD
:101C5000DFFEC01BB042EAD3032372E7009733468E
:101C6000012202212046FFF7F5FE08B1032368E7B1
:101C70003A4631462046FFF738FF034618B1202385
:101C8000636501235DE7A26832B903922268D168D7
:101C9000039192680392039A626D002A3FF451AF58
:101CA00001234EE701234CE701234AE7032348E7DA
:101CB000032346E702234AE72DE9F04385B099461E
:101CC0000C9D90F85030012B00F0108104460F4617
:101CD0001646012380F85030FEF79AFE804694F8AD
:101CE0005130DBB26268012B15D0B2F5827F0AD089
:101CF0000223012284F85120002284F85020184643
:101D000005B0BDE8F083A268002A40F0E780042B0C
:101D100001D00223EDE7002F00F0E280002E00F05A
:101D2000E180B9F1000F00F0DF8094F85130DBB2B0
:101D3000012B2BD000236365A663A4F83E90A4F882
:101D40003C902763A4F83690A4F83490236463642D
:101D500023681A6812F0400F03D11A6842F040025B
:101D60001A60E368B3F5006F14D063681BB1E38EAB
:101D70009BB2012B07D1236817F8012B1A73E38E4E
:101D8000013B9BB2E3864FF0010961E0052384F833
:101D90005130CFE763681BB1E38E9BB2012B07D1B3
:101DA000236837F8022BDA60E38E013B9BB2E386AF
:101DB0004FF0010913E0E38F9BB26BB123689A687F
:101DC00012F0010F08D0DB6826F8023BE38F013BDD
:101DD0009BB2E3874FF00109B5F1FF3F1CD1E38EC1
:101DE0009BB21BB9E38F9BB2002B55D0B9F1000F0A
:101DF000E1D0E38E9BB2002BDDD023689A6812F00D
:101E0000020FD8D037F8022BDA60E38E013B9BB289
:101E1000E3864FF00009CEE7FEF7FAFDA0EB0800DD
:101E2000A842DCD3032364E7E38F9BB26BB1236842
:101E30009A6812F0010F08D0DB683370E38F013B22
:101E40009BB2E38701364FF00109B5F1FF3F1BD18B
:101E5000E38E9BB213B9E38F9BB2EBB1B9F1000FE4
:101E6000E2D0E38E9BB2002BDED023689A6812F09A
:101E7000020FD9D03A781A73E38E013B9BB2E38606
:101E800001374FF00009CFE7FEF7C2FDA0EB0800D5
:101E9000A842DDD303232CE7CDF800802B46012296
:101EA00002212046FFF7D6FD08B1032321E7424671
:101EB00029462046FFF719FE034618B12023636523
:101EC000012316E7A268002A7FF413AF0392226869
:101ED000D168039192680392039A0AE7022308E704
:101EE000012306E7012304E7012302E7022306E7B3
:101EF00090F85100704700283CD010B504460023EC
:101F0000836290F85130002B31D0022384F8513095
:101F10002268136823F0400313606368A2681343C8
:101F2000E26813432269134362691343A26902F40E
:101F300000721343E2691343226A1343A16A2268C1
:101F40000B431360638B03F00403616A22680B4345
:101F500053602368E26A1A612268D36923F400633C
:101F6000D36100206065012384F8513010BD02F078
:101F7000FBFACAE70120704710B4036A046A24F030
:101F800001040462846924F0F00444EA021223F09C
:101F90000A030B438261036210BC704710B4036AEA
:101FA00023F0100303628469036A24F4704444EA52
:101FB000023223F0A00343EA01138261036210BCE2
:101FC0007047836823F0700341F007011943816073
:101FD000704710B4846824F47F4442EA03230B431F
:101FE0002343836010BC70470268D36843F0010349
:101FF000D3600268136843F0010313600020704748
:1020000090F83C30012B7DD010B50446012380F8B8
:102010003C30022380F83D300268936823F47F430C
:1020200023F0770393600B68402B57D010D9702BA7
:102030003ED01FD8502B47D0602B32D1CA68496898
:102040000068FFF7ABFF60212068FFF7BAFF28E0C8
:10205000102B4DD008D9202B4FD0302B21D130213F
:102060000068FFF7AEFF1CE0DBB900210068FFF756
:10207000A8FF16E0B3F5805F0ED0B3F5005F10D176
:10208000CB684A6889680068FFF7A3FF22689368F5
:1020900043F48043936004E00268936823F00703ED
:1020A0009360012384F83D30002084F83C0010BD8B
:1020B000CB684A6889680068FFF78BFF22689368DD
:1020C00043F077039360ECE7CA6849680068FFF75C
:1020D00053FF50212068FFF774FFE2E7CA684968A0
:1020E0000068FFF749FF40212068FFF76AFFD8E743
:1020F00010210068FFF765FFD3E720210068FFF794
:1021000060FFCEE702207047704770477047704706
:1021100010B5044603681A6912F0020F11D0DA688C
:1021200012F0020F0DD06FF002021A610123037743
:1021300003689B6913F0030F70D0FFF7E6FF0023DD
:10214000237723681A6912F0040F12D0DA6812F0AC
:10215000040F0ED06FF004021A6102232377236864
:102160009B6913F4407F5FD02046FFF7CEFF00232A
:10217000237723681A6912F0080F12D0DA6812F078
:10218000080F0ED06FF008021A610423237723682A
:10219000DB6913F0030F4ED02046FFF7B6FF002394
:1021A000237723681A6912F0100F12D0DA6812F040
:1021B000100F0ED06FF010021A61082323772368E6
:1021C000DB6913F4407F3DD02046FFF79EFF0023DC
:1021D000237723681A6912F0010F03D0DA6812F02E
:1021E000010F36D123681A6912F0800F03D0DA6824
:1021F00012F0800F34D123681A6912F0400F03D017
:10220000DA6812F0400F32D123681A6912F0200FF9
:1022100003D0DA6812F0200F30D110BDFFF774FF41
:102220002046FFF773FF8AE72046FFF76DFF204641
:10223000FFF76CFF9BE72046FFF766FF2046FFF79E
:1022400065FFACE72046FFF75FFF2046FFF75EFF24
:10225000BDE76FF001021A61204602F0FBF8C1E70A
:102260006FF080021A61204600F08DF8C3E76FF02E
:1022700040021A612046FFF74AFFC5E76FF02002CF
:102280001A61204600F07EF8C7E7000003681B4A89
:1022900090420AD0B0F1804F07D0A2F5943290421C
:1022A00003D002F58062904203D123F070034A68A4
:1022B0001343124A90420AD0B0F1804F07D0A2F5E2
:1022C0009432904203D002F58062904203D123F40D
:1022D0004073CA68134323F080034A6913430360C1
:1022E0008B68C3620B688362044B984202D001235F
:1022F000436170470B690363F9E700BF002C01409D
:10230000A8B110B5044690F83D305BB1022384F8C3
:102310003D30211D2068FFF7B9FF012384F83D30CF
:10232000002010BD80F83C3002F04CF9EEE70120AF
:10233000704790F83C30012B22D030B4012280F855
:102340003C20022380F83D300468636823F070036A
:102350006360046863680D682B4363600468A36866
:1023600023F08003A3600468A36849680B43A3605B
:1023700080F83D20002380F83C30184630BC704780
:10238000022070477047704708B5044B03EB80028A
:10239000526852680344187A904708BDC400002070
:1023A00008B5084B1B5C53B9064B01221A5403EBCA
:1023B0008002526812681844007A904708BD0020D5
:1023C000FCE700BFC400002038B5044C04EB8005D6
:1023D0006D68AD680444207AA84738BDC400002069
:1023E00038B5044C04EB80056D68ED680444207A30
:1023F000A84738BDC400002010B5044B03EB80048F
:10240000646824690344187AA04710BDC400002002
:1024100004E00A780270013101301A46531E002A86
:10242000F7D1704702E0017001301A46531E002AAE
:10243000F9D1704770B40346002001E029463346C5
:10244000541E32B15E1C18784D1C0B782246C01AFF
:10245000F4D070BC704700E0013003780BB18B42C0
:10246000FAD118467047000030B400252B4601E031
:1024700001250133012B1ED803EB4304A2001C4CA1
:10248000A258002AF4D0D0F80042A242F1D103EBC6
:1024900043029400164A22445468D0F80822944219
:1024A000E7D103EB43029400114A22441489B0F8A7
:1024B00006229442DDD1022B0CD0B1B903EB4303C9
:1024C0009A000B4B13445B89B3F5807F07D0002043
:1024D00030BC70472DB9022905D10020F8E7102043
:1024E000F6E70020F4E71220F2E71020F0E700BF43
:1024F000A4000020002000E00130012806D800EBF5
:1025000040029300034AD358002BF5D1023818BF7C
:1025100001207047A400002070B4002300E00133C4
:10252000012B1CD803EB4304A2002E4CA458D0F876
:1025300000229442F3D103EB43029400294A22443F
:102540005468D0F808229442E9D103EB4302940086
:10255000244A22441489B0F806229442DFD1022B87
:1025600037D039B103EB430290001E4A024452892E
:10257000002A35D179BB03EB43029100194A0A4482
:102580005189013189B203EB43029000154A02449C
:102590005181581C70BC70470133012B06D803EBE6
:1025A0004304A2000F4CA258002AF5D1022B15D0EB
:1025B000D0F800520B4E5A001A449400321935518B
:1025C000D0F808425460B0F8060210810020508113
:1025D000C7E70023E1E74FF48071D4E70020D9E793
:1025E0000020D7E7A40000200138012818D800EB0C
:1025F00040039A000C4B13445B89B3F5807F03D0F2
:102600001BB1013B9BB200E0002300EB40029100B4
:10261000054A0A4453812BB90020034A50507047A1
:102620000220704700207047A40000200023012BE7
:1026300013D810B403EB43018A0008498A58824238
:1026400004D00133012BF5D910BC704703EB4301D3
:102650008A00024900248C50F3E77047A400002050
:10266000D0F824320433490AD0F8002292F802222A
:10267000B1FBF2F1186830B1814202D3091A083374
:10268000F8E7586808447047CA7E8B7E43EA022305
:1026900090F80022032A01D018467047487D0A7D31
:1026A00042EA002243EA0243F6E78176C1F30723B8
:1026B000C376090C0175090A417570472DE9F84F79
:1026C00089460C6800E0013423782F2BFBD05C2B6B
:1026D000F9D0D0F818A20B2220215046FFF7A2FE15
:1026E000002633464FF00808374619E0BF00FFB216
:1026F00046464FF00B0812E015F0800F25D1294611
:102700003148FFF7A8FE00285AD1A5F14103DBB2FA
:10271000192B20D847F002070AF8065001365B460D
:1027200003F1010BE55C202D1FD92F2D1DD05C2D51
:102730001BD02E2D01D0B045DED8B8F1080F3DD109
:102740002E2DD3D00620BDE8F88F47F00307803D3B
:102750001E4B5D5DD3E7A5F16103DBB2192BDBD81E
:1027600047F00107203DEDB2D6E75C44C9F80040D0
:10277000202D14D804232EB39AF80020E52A10D077
:10278000B8F1080F11D007F00302012A10D007F0AA
:102790000C07042F0FD08AF80B300020D3E700235A
:1027A000E9E705228AF80020EAE7BF00FFB2EAE77E
:1027B00043F01003EBE743F00803ECE70620C2E721
:1027C0000620C0E70620BEE788610008C060000858
:1027D000016809B10A4603E04FF0FF3308E0013217
:1027E0001378202B01D93A2BF9D13A2B02D00023B0
:1027F0001846704710B44C1C0B78303B092B07D897
:10280000A24208D153B901320260184610BC704789
:102810004FF0FF33F9E74FF0FF33F6E74FF0FF33A8
:10282000F3E7F8B590F804320BB90020F8BD044680
:10283000D0F82C52074601232A46014690F801029F
:10284000FFF7CEFDD8B9002384F80432D4F8203243
:10285000EB1AD4F81822934213D294F80362012E93
:102860000BD9D4F818321D4401232A46394694F86E
:102870000102FFF7B5FD013EF1E70020D6E7012098
:10288000D4E70020D2E770B5D0F82C328B4213D0B9
:1028900004460D46FFF7C5FF064670B901232A46D8
:1028A000214694F80102FFF78FFD10B101264FF089
:1028B000FF35C4F82C5200E00026304670BD000001
:1028C00010B50446002380F804324FF0FF33C0F8FF
:1028D0002C32FFF7D8FF88BB94F8FF2194F8FE3123
:1028E00043EA02231BB2184A934229D194F83920B3
:1028F00094F838301B0443EA026394F8372043EA23
:10290000022394F83620134323F07F430F4A934267
:1029100018D094F8552094F854301B0443EA02630D
:1029200094F8532043EA022394F85220134323F0EF
:102930007F43064A934204D0012002E0032000E0D6
:10294000022010BD0020FCE755AAFFFF46415400BD
:10295000B8B108B5D0F80032ABB193F80012A1B10C
:10296000B3F80612B0F80422914201D0092008BD44
:1029700093F80102FFF708FD10F0010F07D10020C6
:10298000F5E7092070470920F1E70920EFE7092062
:10299000EDE70000F0B585B006461746002303605A
:1029A0000846FFF715FF051EC0F28E81D14B03EBE1
:1029B00085039C69002C00F08A81346094F8003211
:1029C0007BB194F80102FFF7DFFC10F0010F08D192
:1029D000002F00F07E8110F0040F40F07C81002079
:1029E00073E1002384F80032E8B284F80102FFF7B3
:1029F000D7FC10F0010F40F070811FB110F0040FF0
:102A000040F06D8100212046FFF75AFF0346012860
:102A100000F0CB800026032B00F06381002B40F0F8
:102A20006281227BE37A43EA02231BB2B3F5007F83
:102A300040F05B81E27DA37D53EA02230DD194F83F
:102A4000272094F826301B0443EA026394F82520DB
:102A500043EA022394F824201343C4F81832217C5B
:102A600084F803124A1ED2B2012A00F2408103FB0D
:102A700001F1627B84F80222002A00F04381501E9B
:102A8000024240F04181A07C657C45EA0025A4F823
:102A9000085215F00F0F40F03981277DE07C50EA95
:102AA00007200DD194F8237094F82200000440EA26
:102AB000076094F8217040EA072094F820703843AA
:102AC00094F80FE0A77B57EA0E2E00F021810EEB61
:102AD000010C0CEB151C6045C0F01C81A0EB0C0038
:102AE000B0FBF2F2002A00F0178140F6F570824246
:102AF00074D801274FF6F570824200D903270232BD
:102B0000C4F81422C4F81C620EEB0600C4F82002BC
:102B1000B444C4F828C2032F62D0002D00F0008115
:102B20000144C4F82412022F6FD002EB420102F0DC
:102B3000010202EB510202F2FF12B3EB522FC0F07E
:102B4000F1804FF0FF33C4F81032C4F80C32802308
:102B500084F80532032F5AD084F80072654A938BAB
:102B600001339BB29383A4F806322046FFF75EFD43
:102B70000020AAE0002304AA02EB810242F8103CE4
:102B80000131032913D80B0103F5DF7323441A79AC
:102B9000002AEFD0D87A9A7A120442EA0062587A70
:102BA00042EA00221B7A1343E5E70021E9E700250A
:102BB0000BE031462046FFF783FE034600283FF432
:102BC0002AAF0135032D3FF626AF04AB03EB850397
:102BD00053F8106C002EECD10223F2E7022789E7AC
:102BE000002D40F09B8094F82F0094F82E100904DB
:102BF00041EA006194F82D0041EA002194F82C008C
:102C00000143C4F82412920095E7520093E794F828
:102C1000312094F8303043EA02231BB2012B9BD1C0
:102C2000711C2046FFF72FFE002895D1002384F861
:102C3000053294F8FF2194F8FE3143EA02231BB2D7
:102C40002D4A934288D1E278A3781B0443EA0263B9
:102C5000627843EA022322781343284A93427FF49E
:102C60007BAF94F8E72194F8E6311B0443EA026352
:102C700094F8E52143EA022394F8E4211343204A1F
:102C800093427FF469AF94F8EB2194F8EA311B0486
:102C900043EA026394F8E92143EA022394F8E82125
:102CA0001343C4F8103294F8EF2194F8EE311B046A
:102CB00043EA026394F8ED2143EA022394F8EC21FD
:102CC0001343C4F80C3247E70B2005B0F0BD0C20CD
:102CD000FBE70020F9E70A20F7E70320F5E70A20E1
:102CE000F3E70120F1E70D20EFE70D20EDE70D20E0
:102CF000EBE700BFA400002055AAFFFF525261413C
:102D0000727241610D20E0E70D20DEE70D20DCE767
:102D10000D20DAE70D20D8E70D20D6E70D20D4E707
:102D20000D20D2E70D20D0E738B50446FFF779FD36
:102D3000054658B994F80032032B09D000221146F9
:102D400094F80102FFF758FB00B10125284638BD71
:102D500094F80532012BF1D14FF400720021204686
:102D6000FFF760FB552384F8FE31AA2384F8FF3176
:102D70005223237063706123A3704122E270722199
:102D800084F8E41184F8E51184F8E62184F8E73149
:102D9000D4F8103284F8E831C3F3072284F8E9212B
:102DA000C3F3074284F8EA211B0E84F8EB31D4F810
:102DB0000C3284F8EC31C3F3072284F8ED21C3F31D
:102DC000074284F8EE211B0E84F8EF31D4F81C2260
:102DD0000132C4F82C220123214694F80102FFF7A6
:102DE000FFFA002384F80532A8E70239D0F814323C
:102DF000023B8B4206D990F80232D0F8280201FB40
:102E0000030070470020704701295CD9F8B5D0F85D
:102E100014328B4259D90C46064690F80032022BE8
:102E200029D0032B37D0012B01D001204EE001EB3C
:102E30005105D0F8201201EB5521FFF724FD0028A1
:102E400045D16F1CC5F30805755DD6F8201201EB5E
:102E500057213046FFF717FD00283BD1C7F308077D
:102E6000F05D45EA002014F0010F01D000092DE0CB
:102E7000C0F30B002AE0D0F8201201EB1421FFF779
:102E800002FD50BB610001F4FF7173185B78705C48
:102E900040EA03201AE0D0F8201201EBD411FFF72A
:102EA000F2FCE8B9A10001F4FE717218D0789378B1
:102EB0001B0443EA0063507843EA0023705C184324
:102EC00020F0704002E0012070470120F8BD4FF073
:102ED000FF30FBE74FF0FF30F8E74FF0FF30F5E74A
:102EE0004FF0FF30F2E7F8B50646A0F80612D0F82A
:102EF0000842012C44D00D46D0F80032D3F81422F9
:102F0000A2423FD91CB993F80022032A17D0CCB9AA
:102F1000B3F80822AA4237D9D3F82402C6F80C42E3
:102F2000D0B300EB1510C6F81002D6F8003205F049
:102F30000F0503EB4515C6F81452002023E0D3F823
:102F40002442E4E793F802723F01BD4212D32146C6
:102F5000D6F80002FFF758FF0446B0F1FF3F15D046
:102F6000012815D9D6F80032D3F81432834211D98A
:102F7000ED1BEAE72146D6F80002FFF736FFCDE762
:102F8000022000E00220F8BD0220FCE70120FAE761
:102F90000220F8E70220F6E70220F4E7012940F2D8
:102FA0008B80D0F814328B4240F288802DE9F041BA
:102FB00016460C46054690F80032022B45D0032BEE
:102FC00058D0012B03D002231846BDE8F08101EB55
:102FD0005107D0F8201201EB5721FFF754FC0346AC
:102FE0000028F1D107F10108C7F3080714F0010424
:102FF00020D0EB5703F00F03320102F47F6213433A
:10300000DBB2EB55012385F80432D5F8201201EB31
:1030100058212846FFF737FC03460028D4D1C8F3CF
:1030200008084CB1C6F3071605F80860012285F8B8
:103030000422C9E7F3B2E4E715F9081021F00F0103
:10304000C6F303260E43F6B2EEE7D0F8201201EBEA
:103050001421FFF718FC03460028B5D1610001F4E4
:10306000FF7168186E54C6F307264670012285F872
:103070000422A9E7D0F8201201EBD411FFF703FCDA
:1030800003460028A0D1A10001F4FE716818C4789D
:103090008278120442EA046202F0704216436E54CF
:1030A000C6F307224270C6F307428270360EC6701E
:1030B000012285F8042287E7022300E00223184654
:1030C0007047F8B505460F4641B9D0F80C629EB17D
:1030D000D0F81432B34210D801260EE0FFF794FE68
:1030E000034601284BD9B0F1FF3F4DD0D5F814224B
:1030F000824249D83E4600E0012634460CE0214693
:103100002846FFF781FE034678B1B0F1FF3F3BD080
:10311000012839D0B44236D00134D5F81432A34254
:10312000EDD8012E2DD90224E9E76FF07042214637
:103130002846FFF733FF034600B997B9C3B9C5F86E
:103140000C42D5F81032B3F1FF3F1FD0013BC5F858
:10315000103295F8053243F0010385F80532234615
:1031600012E0224639462846FFF718FF0346E5E7F6
:10317000012B01D0012307E04FF0FF3304E00123CE
:1031800002E0002300E000231846F8BD2346FBE7D9
:103190002DE9F843B0F806526B1C9AB2002A00F0F1
:1031A0008480D0F81022002A00F081800F46044667
:1031B00013F00F060BD10132C0F81022D0F80C1218
:1031C00089B9D0F80022B2F808229A4271D96B1C52
:1031D000A4F80632D4F8003203EB4613C4F81432D4
:1031E0000020BDE8F883D0F8000290F80222013AEE
:1031F00012EA1318EBD1FFF707FE814601285AD9CE
:10320000B0F1FF3F59D0D4F80002D0F814324B454A
:1032100041D8002F53D0D4F80C12FFF752FF81464B
:1032200000284ED001284ED0B0F1FF3F4DD0D4F849
:103230000002FFF7F6FA08B10120D2E74FF400725E
:103240000021D4F80002FFF7EDF8D4F800724946E7
:103250003846FFF7CAFDC7F82C02D4F8003293F8BD
:103260000222424511D9012283F80422D4F8000237
:10327000FFF7D7FA58BBD4F80022D2F82C3201332A
:10328000C2F82C3208F10108E7E7D3F82C22A2EBB0
:103290000802C3F82C22C4F80C924946D4F8000264
:1032A000FFF7A3FDC4F8100291E7042099E704207A
:1032B00097E7042095E7022093E7012091E7042097
:1032C0008FE707208DE702208BE7012089E70120A7
:1032D00087E738B504460021FFF705FE054640B1F3
:1032E000284638BD00212046FFF752FF054600283A
:1032F000F6D1D4F81012D4F80002FFF7C4FA05464C
:103300000028EDD1D4F8140203785BB1C37A13F02E
:10331000080FE7D10B22D4F81812FFF78BF800281A
:10332000E0D1DDE70425DBE710B582B0044601916A
:103330000B782F2B01D05C2B01D10131019100239F
:10334000C4F80832019B1B781F2B1DD901A9204608
:10335000FFF7B4F90346F8B92046FFF7BAFFD4F8EF
:103360001832DA7A0346D0B912F0040F14D1D4F827
:103370001412CB7A13F0100F18D0D4F80002FFF714
:1033800083F9C4F80802E1E700212046FFF7ABFD0E
:1033900003460022C4F81422184602B010BD0428C7
:1033A000FAD112F0040FF7D10523F5E70523F3E76F
:1033B00070B504460E460021FFF795FD0346D8B9C7
:1033C000002508E00135B54216D001212046FFF75F
:1033D000DFFE034680B9D4F81012D4F80002FFF7DC
:1033E00052FA034640B9D4F814221278E52AE9D0FB
:1033F000002AE7D00025E8E7042B01D0184670BD6D
:103400000723FBE738B505460121FFF7D1FF044646
:1034100008B1204638BDD5F81012D5F80002FFF7E4
:1034200032FA04460028F4D120220021D5F81402F3
:10343000FEF7F8FF0B22D5F81812D5F81402FEF7A4
:10344000E7FFD5F80032012283F80422E1E7F8B55E
:1034500001292DD904460D46D0F814328B4229D9C2
:10346000002709E00133C4F8103294F8053243F024
:10347000010384F805323546D4F81432AB421AD928
:1034800029462046FFF7C0FC0646A0B1012814D00B
:10349000B0F1FF3F13D0002229462046FFF77EFD02
:1034A000074640B9D4F81032B3F1FF3FDAD1E2E772
:1034B000022700E002273846F8BD0227FBE7012774
:1034C000F9E7000070B584B001900091154604A89A
:1034D00040F8041DFFF77CF9041E1FDB114B03EBC2
:1034E00084039E692EB13046FFF7A0F8002386F8CA
:1034F0000032019B13B1002283F80022094800EB3F
:103500008400836163B1012D02D0002004B070BD3E
:103510000022694601A8FFF73DFAF7E70B20F5E71F
:103520000020F3E7A40000202DE9F043ADF50F7D66
:103530000191002800F0D780044615460023C0F80A
:10354000003202F01F0802F01E0201A986A8FFF750
:1035500021FA064620B130460DF50F7DBDE8F08317
:1035600003AB8C93019906A8FFF7DEFE8B9F0646FE
:1035700050B9002F59D038F0010314BF01210021A8
:1035800006A8FEF771FF064615F01C0F00F09880A4
:10359000002E56D0042E4AD048F008088B9F16B94A
:1035A00018F0080F58D1C6B918F0080F01D048F02C
:1035B0002008869BD3F82C32C4F81C32C4F8207241
:1035C00038F0010314BF0121002106A8FEF7A4FF73
:1035D000C4F82802002800F08880002EBBD184F8AF
:1035E0000682002584F80752DDF8188239464046E5
:1035F000FFF74AF8C4F81002FA7FBB7F1B0443EAC6
:1036000002637A7F43EA02233A7F1343C4F80C3201
:10361000C4F80852C4F81852C4F82452C4F80082FE
:10362000B8F80632A4F8043295E70626ACE7FEF7B0
:1036300061FF08B91226AFE706A8FFF7E3FE0646CA
:10364000AAE7FB7A13F0110F04D115F0040FA6D0EE
:103650000826A4E70726A2E700F094FBB873C0F39E
:103660000723FB73C0F307433B74000E78740025F7
:10367000FD723D777D77BD77FD7739468698FFF7F8
:1036800003F8814629463846FFF70FF8869801234C
:1036900080F80432B9F1000F85D0D0F82C52494699
:1036A000FFF7D5FE064600287FF47DAF869809F126
:1036B000FF33C0F80C322946FFF7E5F8064672E7FB
:1036C000002E7FF470AFFB7A13F0100F09D115F0C4
:1036D000020F3FF468AF13F0010F3FF464AF072609
:1036E00061E704265FE7092635E7022633E72DE97F
:1036F000F04F83B004468846164699460023C9F821
:103700000030FFF725F90190002840F0F58094F88B
:103710000732002B40F0EF8094F8063213F0020FCE
:1037200000F0EE80D4F80832F342C0F0AA80002600
:10373000A7E0D4F82422B2B32046FEF791FF002878
:1037400000F0CA80012834D0B0F1FF3F36D0C4F871
:103750001402D4F810320BB9C4F8100294F80632EF
:1037600013F0400F2FD1D4F800B2D4F814125846F9
:10377000FFF73BFB824600283CD0BA44750A54D080
:103780007B199BF80222934200D9D51B2B46524647
:1037900041469BF80102FEF723FE80B3012384F823
:1037A00007320193A8E0D4F814121846FFF789FCF9
:1037B000C5E7022384F8073201939DE0012384F8D2
:1037C0000732019398E0D4F800020123D4F81822BC
:1037D000214690F80102FEF703FE30B994F8063254
:1037E00023F0400384F80632BDE7012384F8073252
:1037F000019381E0022384F8073201937CE0D4F83E
:103800001812A1EB0A01A94201D36D022DE04FF479
:10381000007208EB41212046FEF7FAFD94F80632CB
:1038200023F0400384F80632EFE7D4F8183253450A
:1038300005D0D4F80822D4F80C329A423ED3C4F80A
:1038400018A2D4F80802C0F30800C0F50075AE4213
:1038500000D235462A4641462044FEF7D9FD94F869
:10386000063243F0400384F80632A844D4F8083204
:103870002B44C4F80832D9F800302B44C9F8003082
:10388000761B4EB3D4F80812C1F30803002BD8D12D
:10389000D4F8003293F80272013FFFB217EA5127C1
:1038A0007FF45CAF00297FF444AFD4F81002002805
:1038B0007FF445AF1846FFF704FC40E7012352466A
:1038C00021469BF80102FEF77FFD0028B7D00123B7
:1038D00084F8073201930FE0D4F80832D4F80C22B0
:1038E000934201D9C4F80C3294F8063243F0200315
:1038F00084F8063200E00193019803B0BDE8F08F30
:1039000007230193F8E738B50446FFF721F803468B
:1039100008BB94F8062212F0200F1CD012F0400FC2
:1039200011D0D4F800020123D4F81822214690F8CF
:103930000102FEF755FD002846D194F8063223F027
:10394000400384F80632D4F81C12D4F80002FEF7C3
:103950009AFF034608B1184638BDD4F82052EB7AD6
:1039600043F02003EB7294F80C322B77B4F80C324E
:103970001B0A6B7794F80E32AB7794F80F32EB7723
:10398000D4F810122846FEF790FE00F0FBF9A87557
:10399000C0F30723EB75C0F307432B76000E687660
:1039A0000023AB74EB7494F8063223F0200384F800
:1039B0000632D4F80032012283F80422D4F800023F
:1039C000FFF7B2F90346C6E70123C4E710B5044682
:1039D000FFF799FF034608B1184610BD2046FEF7D1
:1039E000B7FF03460028F7D1D4F82802FEF7FCFD04
:1039F00003460028F0D10022C4F80022ECE72DE9AC
:103A0000F84F04460D46FEF7A3FF0646002840F097
:103A10007A8194F80732002B40F07481D4F8243274
:103A2000002B00F09E80B5F1FF3F4CD0D4F80C7213
:103A3000AF4200D32F46C4F80872002F00F0638114
:103A400007F1FF3949462046FEF70AFE0146C4F851
:103A50001402D4F800522846FFF7C7F98046002820
:103A600074D095F80232013B03EA59239844C7F316
:103A70000807002F00F04781D4F81822424500F0D3
:103A8000428194F8063213F0400F0DD001232146F5
:103A900095F80102FEF7A4FC00285BD194F80632E9
:103AA00023F0400384F80632D4F800020123424692
:103AB000214690F80102FEF787FC00284ED001262F
:103AC00084F807621FE103F1040BD3F800A0D4F8D7
:103AD0001092B9F1000F2CD04FF0020808F1020843
:103AE0004D46002701372946D4F80002FFF78CF92C
:103AF000012816D9B0F1FF3F17D06B1C0546834251
:103B0000F0D0C24505D35B4643F8087BCBF8049060
:103B10009B46D4F80032D3F8143283420BD9814645
:103B2000DCE7022684F80762EDE0012684F80762EC
:103B3000E9E04FF00208D4F82432C3F80080D04501
:103B400000F2E4800023CBF80030DCE0022684F8A9
:103B50000762D8E0012684F80762D4E0C4F818822E
:103B6000D1E0D4F80C32AB4205D294F8062212F020
:103B7000020F00D11D46D4F808320022C4F80822F2
:103B80000DB3D4F8000290F802824FEA482883B1BE
:103B90006A1EB2FBF8F2013BB3FBF8F18A4208D38C
:103BA000C8F100071F40C4F80872EF1BD4F8145284
:103BB00007E0D4F81032002B3FD0C4F814322F465F
:103BC0001D46002D67D1D4F80832C3F308032BB388
:103BD000D4F81822AA4221D094F8063213F0400FEC
:103BE0000FD0D4F800020123214690F80102FEF71D
:103BF000F7FB00287ED194F8063223F0400384F8C6
:103C00000632D4F8000201232A46214690F8010228
:103C1000FEF7DAFB002871D1C4F81852D4F8083244
:103C2000D4F80C2293426ED9C4F80C3294F80632C0
:103C300043F0200384F8063265E00021FFF741FAE3
:103C40000346012805D0B0F1FF3F06D0C4F81002AA
:103C5000B3E7022684F8076255E0012684F807627C
:103C600051E02946D4F80002FFF7CEF80546B5F139
:103C7000FF3F31D0012D33D9D4F80032D3F81432BC
:103C8000AB422DD9C4F81452D4F808324344C4F8D6
:103C90000832A7EB080747450DD994F8063213F010
:103CA000020FDED02946D4F80002FFF70AFA0546D3
:103CB0000028DCD14746D4F808323B44C4F8083227
:103CC000C7F30803A3B12946D4F80002FFF78DF823
:103CD00050B100EB572576E7012684F8076212E021
:103CE000022684F807620EE0022684F807620AE0E2
:103CF000002568E7012684F8076204E0012684F8BD
:103D0000076200E01E463046BDE8F88F1126FAE74C
:103D1000114B5B7ADBB2012B01D90120704730B423
:103D20000D4C657AEDB200236355657A04EB850589
:103D30006860607A20440272627AD2B2501CC0B2CB
:103D4000607230320A703A224A702F228A70CB7029
:103D5000184630BC704700BFC400002008B50022E0
:103D6000FFF7D6FF08BD000008B503490348FFF779
:103D7000F5FF034B187008BDC4030020100000209D
:103D8000C8030020002070472DE9F04389B02F4B75
:103D90009A6942F010029A619A6902F01002009248
:103DA000009A9A6942F020029A619A6902F0200210
:103DB0000192019A9A6942F004029A619A6902F0AA
:103DC00004020292029A9A6942F008029A619B697F
:103DD00003F008030393039BDFF8789000224FF46D
:103DE00000514846FDF72EFBDFF86C8000220421CD
:103DF0004046FDF727FB164F002241F202013846EC
:103E0000FDF720FB4FF4005304930126059600258F
:103E100006950224079404A94846FDF729FA0423CD
:103E2000049305960695079404A94046FDF720FAE9
:103E300041F20203049305960695079404A93846B7
:103E4000FDF716FA09B0BDE8F08300BF001002408C
:103E5000000C01400010014000080140000000007B
:103E600008B50C282BD00ED804281BD006D908285A
:103E70002BD00A2806D11A4B198003E0022801D161
:103E8000184B198008BD1A281CD006D920281FD02D
:103E90008428F7D1144B1980F4E71228F2D1134B80
:103EA0001980EFE70846FCF7A5FA0BA3D3E9002336
:103EB000FCF70AFBFCF71AFD0D4B1860E2E70D4B0F
:103EC0001980DFE7084B5980DCE70B4B1980D9E7F5
:103ED000054B1980D6E700BFFCA9F1D24D62503FD7
:103EE000360800201C090020D000002038080020DF
:103EF000FC080020A80F00209E19002070B5054680
:103F00000E46104C01224FF400512046FDF79AFA5C
:103F1000324629460C4800F0D1FF01224FF40051EF
:103F20002046FDF78FFA4FF4FA70FCF777FD002278
:103F30004FF400512046FDF785FA4FF4FA70FCF774
:103F40006DFD70BD00100140CC61000808B50F4840
:103F50000F4B03604FF48273436000238360C360A0
:103F6000036143614FF400728261C3610362436283
:103F700083620A23C362FDF7BEFF00B908BD40F2A9
:103F80005D110448FFF7BAFFF8E700BF3C080020C6
:103F900000380040FC61000800B587B01A481B4B90
:103FA000036048F69F4343600023836040F2CF7272
:103FB000C26003618361FEF7A3F998B906A94FF4C3
:103FC000805341F8103D1048FEF71AF880B90023DD
:103FD0000093019369460C48FEF7ABF970B907B03E
:103FE0005DF804FB40F271110948FFF787FFE5E730
:103FF00040F277110648FFF781FFE8E74FF4BF7101
:104000000348FFF77BFFEAE7E409002000040040D3
:10401000FC61000808B50F480F4B036003234360A1
:1040200000238360C3604FF4802202614FF4A0023A
:10403000426183610122C261036243628362C3629F
:10404000FCF783FD00B908BD40F245110348FFF7B6
:1040500055FFF8E77009002000640040FC6100088B
:1040600000B58BB01748184B1A1D02632033436309
:104070000023059306930122079200930193029374
:104080000393049308920E2309936946FCF7DAFC24
:1040900088B90C4B196B01220A60196B4A601A6BC4
:1040A0000021D1601A6B042191601B6B02221A61FE
:1040B0000BB05DF804FB40F2D3110448FFF71EFF7C
:1040C000E7E700BF70090020D0000020FC61000875
:1040D00000B591B0012206924FF48033079300217E
:1040E00008910A9202220D920E934FF4E0130F935F
:1040F00006A8FDF7C7F908BB0F230193022102911F
:10410000002303934FF480620492059301A8FDF706
:10411000DFFBC8B9FDF798FC0E4BA3FB003080090C
:10412000FDF77AF80420FDF78DF8002211464FF0D4
:10413000FF30FDF731F811B05DF804FB4FF48B71DF
:104140000548FFF7DBFED7E74FF492710248FFF70F
:10415000D5FEDFE7D34D6210FC61000808B5FCF71F
:1041600039FCFFF7B5FFFFF70FFEFFF7EFFEFFF794
:10417000FBFDFFF711FFFFF74DFF4FF47A60FCF7EF
:104180004DFCFFF76DFF00211548FCF779FD10BBD2
:104190001448FDF729FF144C00224FF4005120462B
:1041A000FDF750F94FF4FA70FCF738FC01224FF498
:1041B00000512046FDF746F94FF4FA70FCF72EFC4B
:1041C00000224FF400512046FDF73CF94FF4FA70FD
:1041D000FCF724FCFEE7CD210448FFF78FFED7E76C
:1041E00070090020E409002000100140FC61000873
:1041F000F8B50546474E012386F844304FF4005188
:104200004548FDF725F904214448FDF721F9686B7D
:10421000047C4768B764002305E0C218117D404A5A
:10422000D1540133DBB2A342F7D34368DB0CB3F5BF
:10423000207F0ED0374A136D0133136500212846C5
:10424000FCF71EFD00285FD1324B002283F844208A
:10425000F8BD8368042BEDD1C7F3C227314B1F7023
:104260002F4B1B7803BB2B4B0022A3F84C200122C1
:1042700083F84E202A4A53781B0203F4E0639278B5
:104280001343294A138003230BE02249B1F84C2041
:104290002348C65C254886540132A1F84C200133DE
:1042A000DBB2A342F1D3C5E71A4A92F84E209342FB
:1042B000C0D10132174B83F84E2001260DE0154B7B
:1042C000B3F84C30184A1288013A9342B2D0013305
:1042D000104AA2F84C300136F6B2A642AAD20D4BD3
:1042E000B3F84C300E4A925D1049CA5403F00301F2
:1042F0000329E4D19F1E0D48013BC15C42EA012124
:10430000C05DFFF7ADFDDAE740F2A7210848FFF7EF
:10431000F5FD99E7D00000200010014000080140A1
:1043200088190020260A0020C40900202009002046
:10433000FC61000870B588B0012202213448FDF705
:1043400081F8002233493448FFF7BCF8002840D1F7
:10435000122232493248FFF7E7F800283FD13048AF
:10436000D0F80C12FFF74BFB00283ED12D4B1E88D6
:104370002D4A15882D4C2E4A128807922D4A1288F4
:1043800006925B8805932C4B1B8804932B4B186873
:10439000FCF742F8CDE90201294B1B880093334614
:1043A0002A462849204600F0A1FD0246264B186007
:1043B000264B21461A48FFF79AF9E0B91848FFF74B
:1043C00005FBF0B9002202211148FDF73BF808B0C7
:1043D00070BD40F2E3211E48FFF790FDB8E740F2C0
:1043E000E9211B48FFF78AFDB9E740F2EF211848A1
:1043F000FFF784FDBAE74FF43E711548FFF77EFDE5
:10440000DCE740F2FE211248FFF778FDDAE700BF53
:10441000000C01400C62000824010020106200081A
:104420002C0A0020D00000201C090020A80D00202C
:104430009E19002038080020A80F0020FC0800204A
:10444000360800201C6200089819002090190020EE
:10445000FC61000808B5FFF76DFF08BD00B583B02B
:10446000244B9A6942F001029A619A6902F00102B2
:104470000092009ADA6942F08052DA61DB6903F057
:1044800080530193019B0420FCF774FE0022114627
:104490006FF00B00FCF780FE002211466FF00A005F
:1044A000FCF77AFE002211466FF00900FCF774FE5B
:1044B000002211466FF00400FCF76EFE0022114648
:1044C0006FF00300FCF768FE002211466FF0010058
:1044D000FCF762FE002211464FF0FF30FCF75CFE55
:1044E000054A536823F0E06343F00073536003B060
:1044F0005DF804FB00100240000001400268184B08
:104500009A4200D0704730B587B003F5D633DA69E8
:1045100042F00072DA61DB6903F000730193019BE2
:104520004FF4006302930024039404940D4D02A9F8
:104530002846FCF79DFE4FF4805302930223039319
:104540000323059302A92846FCF792FE2246214642
:104550001420FCF721FE1420FCF752FE07B030BDFA
:1045600000640040000801400268144B9A4200D0E9
:10457000704710B586B003F5EC33DA6942F4804237
:10458000DA61DB6903F480430193019B4FF420431C
:1045900002930223039303230593094C02A92046A7
:1045A000FCF766FE4FF480430293002303930493C9
:1045B00002A92046FCF75CFE06B010BD00380040A2
:1045C000000C014002680E4B9A4200D0704700B5C3
:1045D00083B003F50333DA6942F00202DA61DB6982
:1045E00003F002030193019B012211461D20FCF7F9
:1045F000D3FD1D20FCF704FE03B05DF804FB00BFF3
:10460000000400407047FEE7FEE7FEE7FEE7704764
:104610007047704708B5FCF7EFF9FCF724FE00F08F
:10462000E7FB08BD08B50248FCF7A6FC08BD00BFC3
:104630007009002008B50248FDF76AFD08BD00BFFB
:10464000E40900200F4B1A6842F001021A60596811
:104650000D4A0A405A601A6822F0847222F48032AD
:104660001A601A6822F480221A605A6822F4FE0244
:104670005A604FF41F029A60044B4FF000629A6038
:10468000704700BF001002400000FFF800ED00E09E
:10469000014B00221A707047AE030020014B1878BE
:1046A000704700BFAE03002018B9034B1878C0B2A2
:1046B00070470120704700BF0C00002000B583B098
:1046C0008DF807000748FDF713FC0128FAD141F2E5
:1046D000883301220DF107010248FDF71AFA03B0F1
:1046E0005DF804FB3C08002000B585B0FF238DF881
:1046F0000F3000238DF80E300A48FDF7F9FB012832
:10470000FAD141F28833009301230DF10E020DF12D
:104710000F010448FDF7D0FA9DF80E0005B05DF8D2
:1047200004FB00BF3C08002010B582B001224FF40A
:1047300080512248FCF786FE002404E0FF20FFF7AA
:10474000BDFF0134E4B2092CF8D900224FF48051A6
:104750001A48FCF777FE40238DF8003000248DF8CE
:1047600001408DF802408DF803408DF804409523F8
:104770008DF8053007E002AB234413F8080CFFF76F
:104780009DFF0134E4B2052CF5D941F6FF7400E039
:10479000013CFFF7A9FF012801D0002CF8D101222C
:1047A0004FF480510548FCF74DFEFF20FFF786FFD0
:1047B000034B01221A7002B010BD00BF000C014073
:1047C000AE03002008B5074B32225A70FFF78CFF6A
:1047D000FFF78AFFFF2803D0024B5B78002BF7D14D
:1047E00008BD00BFAE03002038B504460D46FFF7F4
:1047F000E9FFFF2801D0FF2038BD2046FFF75EFF0C
:10480000280EFFF75BFFC5F30740FFF757FFC5F31F
:104810000720FFF753FFE8B2FFF750FF402C11D0FD
:104820000020482C10D0FFF749FF4C2C0ED00A2452
:10483000FFF75AFF10F0800FDED0631E13F0FF0465
:10484000F6D1D9E79520ECE78720ECE7FFF74CFF9E
:10485000EDE70000002840F0B78030B583B0044693
:104860005A4B1B7813F0020F04D0584B1878C0B283
:1048700003B030BDFFF758FF00224FF48051544879
:10488000FCF7E0FD00214020FFF7AEFF05460128C0
:1048900015D0504BDC7001224FF480514C48FCF78E
:1048A000D1FDFFF721FF002C00F08B80474A1378E1
:1048B00003F0FE031370454B1878C0B2D8E7454BA0
:1048C00064229A704FF4D5714820FFF78DFF0128BC
:1048D00040D1254607E0FFF707FF02AB2B4403F862
:1048E000040C0135EDB2032DF5D99DF80630012BEE
:1048F000CFD19DF80730AA2BCBD102E0354B9B7866
:1049000063B100217720FFF76FFF0128F6D84FF041
:1049100080416920FFF768FF0028EFD12D4B9B787D
:10492000002BB6D000217A20FFF75EFF054640B18C
:10493000AFE7FFF7D9FE02AB2B4403F8040C0135B7
:10494000EDB2032DF5D99DF8043013F0400F36D0A9
:1049500006249EE700217720FFF746FF012810D8A4
:1049600000216920FFF740FF01280AD8022508E04E
:1049700000217720FFF738FF012819D9154B9B78C4
:104980003BB1022DF4D000214120FFF72DFF00287C
:10499000F4D1104B9B78002B3FF47BAF4FF40071A8
:1049A0005020FFF721FF00287FF473AF2C4670E7FB
:1049B00000216920FFF718FF0028DFD1E9E7022472
:1049C00067E7FFF765FE76E7012070470C000020DF
:1049D000000C0140AE03002010B50446FFF784FE32
:1049E000207010BD70B504460E460F4B0A229A7017
:1049F000FFF77AFEFF2803D10B4B9B78002BF7D1F2
:104A0000FE2801D0002070BD651C2046FFF7E4FFA2
:104A100028460234FFF7E0FF023EF5D1FFF764FEBF
:104A2000FFF762FE0120EEE7AE030020002846D12A
:104A300070B50D4616461C46002B42D0234B1B7802
:104A400013F0010F3FD1224BDB7813F0040F00D19C
:104A5000560200224FF480511E48FCF7F3FC012C53
:104A60001ED031465220FFF7BFFE68B94FF40071E7
:104A70002846FFF7B7FF18B105F50075013CF5D1E1
:104A800000214C20FFF7B0FE01224FF48051114865
:104A9000FCF7D8FCFFF728FE201C18BF012070BDD2
:104AA00031465120FFF7A0FE0028EDD14FF40071F0
:104AB0002846FFF797FF0028E6D00024E4E704200B
:104AC00070470420EBE70320E9E700BF0C0000205B
:104AD000AE030020000C0140F8B506460C46FFF777
:104AE00071FEFF2801D00020F8BD2046FFF7E6FD4B
:104AF000FD2C21D00024354615F8020BFFF7DEFD12
:104B00007078FFF7DBFD631E2E4613F0FF04F2D131
:104B1000FFF7EAFDFFF7E8FD0024402C08D8FFF777
:104B2000E3FD074600F01F03052B01D00134F4E735
:104B3000FFF7DAFD0028FBD007F01F07052F01D093
:104B40000020D1E70120CFE700285AD170B50D46EB
:104B500016461C46002B56D02E4B1B7813F0010F27
:104B600053D12C4B1B7813F0040F50D12A4BDB7818
:104B700013F0040F00D1560200224FF48051274851
:104B8000FCF760FC012C23D0234BDB7813F0020FE1
:104B90002CD131465920FFF727FE68B9FC21284661
:104BA000FFF79AFF18B105F50075013CF6D1FD211C
:104BB0000020FFF791FF10B301224FF480511748F6
:104BC000FCF740FCFFF790FD201C18BF012070BDD2
:104BD00031465820FFF708FE0028EDD1FE21284677
:104BE000FFF77AFF0028E7D00024E5E700217720CF
:104BF000FFF7FAFD21465720FFF7F6FDC9E701242C
:104C0000DAE7042070470420E1E70320DFE7022011
:104C1000DDE700BF0C000020AE030020000C0140C7
:104C200070B584B0002840F0C2800C4615460529B6
:104C300017D0624B1B7813F0010F40F0BC800022AC
:104C40004FF480515E48FCF7FDFB0D2C00F2A5806F
:104C5000DFE804F06E2161A3A3A3A3A3A3A3A3741D
:104C600082901378012B0DD01BB1022B0ED004249F
:104C70009EE0FFF713FD08B9002499E0FFF708FD57
:104C8000002495E0FFF750FD002491E0FFF706FDBA
:104C9000687000248CE000214920FFF7A5FD08B1D1
:104CA00001243CE010216846FFF79CFE002876D0E6
:104CB0009DF800309B09012B20D09DF8052002F0C3
:104CC0000F029DF80A3002EBD3129DF809305B0009
:104CD00003F006031A449DF808309DF807109B095D
:104CE00003EB81039DF80610890201F440610B4437
:104CF0000133073A93402B60002410E09DF80930FF
:104D00009DF8082003EB02239BB201339BB29B0268
:104D10002B60002403E04FF400732B800024012259
:104D20004FF480512648FCF78DFBFFF7DDFC3FE098
:104D3000FFF748FDFF2834D00124F0E70021492087
:104D4000FFF752FD08B10124E9E710212846FFF7DB
:104D500049FE40BB0124E2E700214A20FFF744FD61
:104D600008B10124DBE710212846FFF73BFEE0B93C
:104D70000124D4E700217A20FFF736FD044640B134
:104D80000124CCE76E1CFFF7AFFC28700134E4B2BD
:104D90003546032CF6D90024C1E70424BFE70124DB
:104DA000BDE70024BBE70024B9E70024B7E70424EB
:104DB000204604B070BD0324FAE700BF0C000020B9
:104DC000000C0140094B9A7802F0FF031AB1013B35
:104DD000DBB2064A9370054B5A7802F0FF031AB112
:104DE000013BDBB2014A5370704700BFAE030020A5
:104DF00008B5084A138801339BB2138013889BB20D
:104E0000092B00D808BD134600221A80FFF7DAFFED
:104E1000F8E700BFA0190020002103E00B4B5B580E
:104E2000435004310A480B4B42189A42F6D30A4ABF
:104E300002E0002342F8043B084B9A42F9D3FFF703
:104E400001FC00F00FF8FFF789F97047D8620008FD
:104E5000000000208800002088000020A819002001
:104E6000FEE7000070B500250C4E0D4CA41BA410ED
:104E7000A54209D101F00EF900250A4E0A4CA41BE7
:104E8000A410A54205D170BD56F8253098470135CC
:104E9000EEE756F8253098470135F2E7D062000872
:104EA000D0620008D0620008D462000803460244C1
:104EB000934200D1704703F8011BF9E70FB40A4B86
:104EC00013B51C6824B1A36913B9204600F06EF82D
:104ED00005AB049AA1682046019300F0C3FA02B022
:104EE000BDE8104004B07047240000200EB46FF0FD
:104EF000004100B59CB01DAB029006900791049153
:104F00000848094953F8042B0591006802A9019348
:104F100000F08AF90022029B1A701CB05DF804EBC5
:104F200003B07047240000200802FFFF002310B5E3
:104F30000446C0E90033836081814366C281C0E9D1
:104F400004338361194608225C30FFF7AFFF054B3D
:104F500024626362044BA362044BE362044B236349
:104F600010BD00BFBD590008DF590008175A0008DE
:104F70003B5A0008014900F085B800BF155D0008E4
:104F800070B568254A1E55430E4605F1740100F0C0
:104F900097F8044640B10021C0E900160C30A0602B
:104FA00005F16802FFF782FF204670BD836910B5E6
:104FB000044633BBC0E912330365124B124A1B6827
:104FC0008262984204BF0123836100F01FF8606091
:104FD000204600F01BF8A060204600F017F80022E1
:104FE000E06004216068FFF7A1FF01220921A068A9
:104FF000FFF79CFF02221221E068FFF797FF0123D1
:10500000A36110BD38620008754F0008F8B51B4B4E
:1050100007461E68B36913B93046FFF7C7FF483625
:10502000D6E90134013B03D5336833B13668F7E77D
:10503000B4F90C506DB16834F4E704213846FFF739
:105040009FFF30600028F1D10C2304463B602046CE
:10505000F8BD0B4B6566C4E90055A560C4E903358E
:10506000C4E905550822294604F15C00FFF71EFF3C
:10507000C4E90D55C4E91255E9E700BF38620008DC
:105080000100FFFF2DE9F84380468946002600F124
:10509000480414B93046BDE8F883D4E90175013FEE
:1050A00001D52468F5E7AB89012B07D9B5F90E3096
:1050B000013303D029464046C84706436835EEE72A
:1050C00070B5CD1C25F0030508350C2D38BF0C2517
:1050D000002D064601DBA94203D90C2333600020D2
:1050E00070BD00F0E9FE214A1468214691B9204CB8
:1050F00023681BB9304600F051FC20602946304639
:1051000000F04CFC431C24D10C233046336000F0EB
:10511000D4FEE4E70B685B1B18D40B2B0FD90B6094
:10512000CC18CD50304600F0C8FE04F10B00231D12
:1051300020F00700C31AD3D05A42E250D0E74B68A0
:105140008C4216BF636013600C46EBE70C4649685F
:10515000CCE7C41C24F00304A04205D0211A304639
:1051600000F01CFC0130CFD02560DBE7B403002049
:10517000B80300202DE9F0478E6882469E420C4617
:105180009046994637D88A8912F4906F31D002231D
:10519000256809696F1A656905EB450595FBF3F507
:1051A00009F101033B449D4238BF1D46530530D5EC
:1051B0002946FFF785FF064650B90C234FF0FF3014
:1051C000CAF80030A38943F04003A381BDE8F0870B
:1051D0003A46216900F04CFEA38923F4906343F022
:1051E0008003A38126613E4426604E466561ED1B27
:1051F000A5604E4500D94E4632464146206800F033
:1052000042FEA36800209B1BA36023681E44266007
:10521000DCE72A4600F09EFE06460028E2D121691E
:10522000504600F04BFEC8E72DE9F04F9DB00393C8
:105230008B8980461D060C4616460FD50B696BB947
:105240004021FFF73DFF2060206128B90C23C8F8FA
:1052500000304FF0FF30C7E0402363610023099323
:1052600020238DF8293030234FF0010B8DF82A30A0
:1052700037463D4615F8013B0BB1252B3ED1B7EB28
:10528000060A0BD05346324621464046FFF772FFCE
:10529000013000F0A480099B534409933B78002B14
:1052A00000F09D8000234FF0FF32CDE905230493E9
:1052B00007938DF853301A932F46052217F8011BD8
:1052C0004F4800F0C7FD049BD0B9D90644BF202247
:1052D0008DF853201A0744BF2B228DF853202A78CB
:1052E0002A2A15D02F4600200A25079A394611F898
:1052F000013B303B092B4DD9B8B10FE02F46B8E741
:105300003F4A3D46801A0BFA00F018430490D3E759
:10531000039A111D12680391002A01DB079204E031
:10532000524243F00203079204933B782E2B0CD198
:105330007B782A2B33D1039B02371A1D1B680392FB
:10534000002BB8BF4FF0FF3305932E4D0322397861
:10535000284600F07FFD38B14023401B03FA00F0DF
:10536000049B0137034304933978062226487E1CA8
:105370008DF8281000F06EFD002838D0234B13BBA9
:10538000039B073323F0070308330393099B4B4424
:1053900009936DE705FB023201200F46A6E70023C3
:1053A0000A25194601370593384610F8012B303A83
:1053B000092A03D9002BC8D00591C6E705FB0121B6
:1053C00001230746F0E703AB00932246104B04A9E4
:1053D0004046AFF30080B0F1FF3F8146D6D1A389AC
:1053E0005B063FF536AF09981DB0BDE8F08F03AB03
:1053F00000932246064B04A9404600F0BDF9EAE7B7
:105400009C620008A2620008A6620008000000007A
:1054100075510008936810B4013B002B936007DAC4
:105420009469A34201DB0A2902D110BC00F00ABB37
:105430001368581C10601970084610BC7047F8B506
:1054400006460F461446D518AC4201D1002007E0AD
:105450003A4614F8011B3046FFF7DCFF431CF3D13A
:10546000F8BD00002DE9F04F9DB00C4617460393A0
:10547000064618B183690BB9FFF798FD7B4B9C4238
:1054800057D17468A38918075DD52369002B5AD0BA
:105490000023099320238DF8293030234FF0010B8E
:1054A0008DF82A30B846454615F8013B0BB1252B3F
:1054B00054D1B8EB070A0BD053463A462146304642
:1054C000FFF7BDFF013000F0C280099B53440993F0
:1054D00098F80030002B00F0BA8000234FF0FF3224
:1054E000CDE90523049307938DF853301A93A8460A
:1054F000052218F8011B5E4800F0ACFC049B78BB49
:10550000D90644BF20228DF853201A0744BF2B220E
:105510008DF853202A782A2A2AD0A84600200A2566
:10552000079A414611F8013B303B092B69D960B31A
:1055300024E0504B9C4201D1B468A3E74E4B9C42FF
:1055400008BFF4689EE72146304600F0DFFA0028E5
:105550009ED04FF0FF301DB0BDE8F08FA846A2E707
:10556000434A4546801A0BFA00F018430490BEE700
:10557000039A111D12680391002A01DB079204E0CF
:10558000524243F002030792049398F800302E2B06
:105590000ED198F801302A2B38D1039B08F102086C
:1055A0001A1D1B680392002BB8BF4FF0FF33059301
:1055B000324D032298F80010284600F04BFC40B111
:1055C0004023401B03FA00F0049B08F10108034349
:1055D000049398F800100622294808F101078DF875
:1055E000281000F037FC002837D0264B1BBB039B4C
:1055F000073323F0070308330393099B4B440993B4
:1056000050E705FB0232012088468AE700230A257D
:10561000194608F101080593404610F8012B303A6D
:10562000092A03D9002BC3D00591C1E705FB01214D
:1056300001238046F0E703AB00932246124B04A9F6
:105640003046AFF30080B0F1FF3F8146D5D1A3894A
:105650005B063FF57EAF09987DE703AB00932246DA
:10566000094B04A9304600F087F8ECE75C620008BB
:105670009C6200087C6200083C620008A26200088C
:10568000A6620008000000003F5400082DE9F04722
:1056900091461F468A680B6906469342B8BF134677
:1056A000C9F8003091F843200C46DDF8208012B193
:1056B0000133C9F800302368990642BFD9F8003099
:1056C0000233C9F80030256815F0060507D104F14A
:1056D000190AE368D9F800209B1AAB4229DC94F838
:1056E00043302268003318BF012392062ED404F100
:1056F000430239463046C047013021D02368E5686F
:1057000003F00603042B18BF0025D9F800204FF042
:10571000000908BFAD1AA368226908BF25EAE5752C
:105720009342C4BF9B1AED181A344D451AD100207C
:1057300008E00123524639463046C047013003D1C4
:105740004FF0FF30BDE8F0870135C2E73020E118A7
:1057500081F843005A1C94F845102244023382F821
:105760004310C4E70123224639463046C047013082
:10577000E6D009F10109D8E72DE9F04301F1430C26
:105780000C46097E85B06E291746064698460C9A47
:1057900000F0B38022D8632936D00AD8002900F05F
:1057A000B980582900F0838004F1420584F8421042
:1057B00032E0642901D06929F6D120681368050612
:1057C00003F104012AD51B681160002B03DA2D2296
:1057D0005B4284F843206F480A2239E0732900F0C5
:1057E0009D8008D86F2920D07029DDD1236843F02F
:1057F0002003236003E0752917D07829D4D17823BA
:10580000654884F8453055E0136804F14205191DD8
:105810001B68116084F8423001238CE01B6810F093
:10582000400F116018BF1BB2CFE713682568181D21
:105830001060280601D51B6802E06806FBD51B88AE
:105840006F2914BF0A2208225248002184F843100D
:105850006568002DA560C0F29580216821F00401E3
:105860002160002B3DD1002D40F08E806546082A36
:105870000BD12368DB0708D5236962689A42DEBF33
:10588000302305F8013C05F1FF35ACEB050323613E
:10589000CDF800803B4603AA21463046FFF7F6FECE
:1058A00001304DD14FF0FF3005B0BDE8F0833948ED
:1058B00084F84510136821681D1D1B6815600A06D1
:1058C0000BD5CA0744BF41F0200121601BB92268F3
:1058D00022F0200222601022B7E74D0648BF9BB29B
:1058E000EFE76546B3FBF2F102FB1133C35C05F849
:1058F000013D0B460029F5D1B9E713682568181D4D
:105900006169106028061B6801D5196002E06A060B
:10591000FBD51980002365462361B9E71368191D7B
:1059200011601D6862680021284600F093FA08B1F2
:10593000401B606063682361002384F84330A7E75D
:1059400023692A4639463046C0470130AAD0236829
:105950009B0713D4E068039B9842B8BF1846A3E79F
:1059600001234A4639463046C04701309AD00135B6
:10597000E368039A9B1AAB42F2DCEBE7002504F1E3
:105980001909F5E7002BACD1037804F1420584F83E
:1059900042306CE7AD620008BE62000838B50023F3
:1059A000054C05460846236000F05EFB431C02D10F
:1059B000236803B12B6038BDA419002010B50C4634
:1059C000B1F90E1000F0ECFA0028ABBF636DA389AB
:1059D0001B1823F48053ACBF6365A38110BD2DE970
:1059E000F0411F468B890546DB050C46164605D55A
:1059F00002230022B1F90E1000F0B6F9A389324655
:105A000023F48053A381B4F90E103B462846BDE829
:105A1000F04100F069B810B50C46B1F90E1000F075
:105A2000A3F9431CA38915BF606523F4805343F495
:105A30008053A38118BFA38110BDB1F90E1000F0EF
:105A4000D3B80000F8B50E461446054618B1836970
:105A50000BB9FFF7ABFA214B9C422AD16C68A369C2
:105A6000A360A3891A072ED5236963B3236920682D
:105A7000F6B2C01A63693746834204DC21462846E1
:105A800000F048F928BBA3680130013BA3602368FC
:105A90005A1C22601E706369834204D0A389DB070D
:105AA00019D50A2E17D12146284600F033F990B1B6
:105AB0000FE00B4B9C4201D1AC68D0E7094B9C42F4
:105AC00008BFEC68CBE72146284600F01FF8002805
:105AD000CCD04FF0FF373846F8BD00BF5C620008FD
